:020000040001F9
:1080000000360020398101005381010055810100B3
:108010000000000000000000000000000000000060
:108020000000000000000000000000005781010077
:108030000000000000000000598101005B81010088
:108040005D8101005D8101005D8101005D810100B4
:108050005D81010000000000AD8201005D81010032
:108060005D8101005D8101005D8101005D81010094
:108070005D8101005D8101005D8101005D81010084
:108080005D810100958301005D8101005D8101003A
:10809000B58301005D810100098401005D8101005B
:1080A0005D8101005D810100000000000000000012
:1080B00000000000000000000000000000000000C0
:1080C0000348854600F0E0F800480047C5A20100DB
:1080D00000360020056885F3088846680A4AEFF3F1
:1080E00005839A42304602D1084CA6463047074CD9
:1080F000064D0646064FF0B4034C034D024E024FA8
:10810000F0B404480047000000000000FFFFFFFF3C
:1081100000000021F9FFFFFF401E00BF00BF00BFAD
:1081200000BF00BF00BF00BF00BF00BF00BF00BF57
:1081300000BFF1D1704700000321094802680A43DB
:108140000260084802680A430260074880470748FF
:108150000047FEE7FEE7FEE7FEE7FEE7FEE700007A
:1081600024050040540500402D840100C180010019
:1081700030B50B46014600202022012409E00D46BF
:10818000D5409D4205D31D469540491B2546954047
:1081900040191546521E002DF1DC30BDF0B51FB45C
:1081A0000646002082B005464024019100901BE065
:1081B000019922460F46304600F054F8049A059B78
:1081C000801A994110D310461946224600F03AF819
:1081D000361A8F410197224601200021009F00F0AE
:1081E00031F838184D4100902046641E0028DFDC2D
:1081F000019B00982946324607B0F0BD03460B4369
:108200009B0703D009E008C9121F08C0042AFAD24C
:1082100003E00B780370401C491C521EF9D27047D2
:10822000D2B201E00270401C491EFBD2704700220E
:10823000F6E710B513460A4604461946FFF7F0FF65
:10824000204610BD10B5202A04DB0146203A91409B
:10825000002010BD914020239C1A0346E34019439F
:10826000904010BD10B5202A04DB0846203AD040CB
:10827000002110BD0B46D340D0402024A21A9140CB
:108280000843194610BD0000064C0125064E05E0C6
:10829000E36807CC2B430C3C98471034B442F7D327
:1082A000FFF712FFF4B1010014B20100F8B51F4846
:1082B00005691F490020C863074632E014213A4689
:1082C0004A434168806854180121B940014226D0D0
:1082D000E068C64320686E4006403146204602F002
:1082E00033FC1248006968400CD00543E0682168FF
:1082F000C0436840084001460090204602F024FC3C
:10830000009806433046A168A84301402A466068A9
:108310003240104002460A4301D0226990477F1C38
:10832000FFB2044841788F42C8D3F8BD0005005021
:1083300040610040742800208307FF22DB0E9A4032
:108340008907090E994000280BDA0007000F08384A
:10835000830808489B001818C36993430B43C36103
:108360007047830804489B001B1818689043084313
:108370001860704700ED00E000E400E0BFF34F8FAD
:1083800003490248C860BFF34F8FFEE70400FA05B7
:1083900000ED00E010B506490020086048608860E4
:1083A000C860034940390860486002F0F9FD10BD1B
:1083B00040110140FEB50020C043124D0290686993
:1083C000019068462E6901F0F5FC074601F0B8FE01
:1083D0000446002F08D002AA0199009801F00AFD76
:1083E000029801F0F7FE06E0029801F0F3FE002883
:1083F00001D1002C02D0304601F0D6FA002068717D
:10840000FEBD00009028002010B5074840680028F5
:1084100007D08047002803D00022114600F008FA58
:1084200010BD01F029FD10BDB428002010B501F0E9
:1084300071FD002805D00E490C484860C8130D494D
:1084400088610D48018CC9B201290ED1818C0907C0
:108450000BD1018D0906090F042906D1808D000674
:10846000000F02D105490120886010BDDFFF07C061
:1084700000050040006C0040C00F00F00006004006
:1084800030B47446641E2578641CAB4200D21D468D
:10849000635D5B00E31830BC184702E008C8121F98
:1084A00008C1002AFAD170477047002001E001C1DD
:1084B000121F002AFBD17047F7B582B0002605468F
:1084C000167000781446002805D02846039901F05C
:1084D000A9FF06002DD1A87800281BD02078039F83
:1084E000001D1F2824D8684679DF002821D1217873
:1084F0000322481C20707A5421781922481C2070CD
:108500007A542078C1196846008802F089FD2178E4
:1085100040182070A988002923D001208446AA6829
:108520000398002A07D0227853189B1C1F2B04D9CC
:108530000C2005B0F0BD0720FBE71346521C22704B
:10854000491CC15422786746511C217087542378F6
:10855000AA881818A968FFF751FE207829794018D1
:108560002070E868002815D00021415622788C46FA
:10857000D01C03991F28DBD8501C022320708B5479
:1085800022780A23501C20708B5420786246431CAA
:1085900023700A54288A002809D02846009406220D
:1085A00002211030039B02F0AFFD0600C1D1288BE1
:1085B000002809D028460094072203211830039B85
:1085C00002F0A2FD0600B4D1288C2F4620370028E7
:1085D00008D00094152214213846039B02F094FD24
:1085E0000600A6D1A86A002805D02246039901F00A
:1085F0002DFA06009DD1E86A002805D0224603998D
:1086000001F0DEFE060094D1387D002806D0224617
:108610002846039902F0BAFA06008AD1304688E764
:10862000F0B50127374D00249FB0012805D0002860
:1086300037D00022114610461DE004216846324E14
:108640000173B1680A8B0280491C02911721818055
:10865000382104A8FFF7EBFD68460474878203A85D
:10866000069068460F90002104A800F073FE0028D1
:1086700003D00022114600F0DBF814212148FFF757
:10868000D6FD032028706C602C72B0687D21408B71
:10869000C90048431D49FFF76BFD28826C821FB05B
:1086A000F0BD052118A80175194800681C901548EF
:1086B0004C38817C18A8817438216846FFF7B7FDD3
:1086C000022168460170877087801DA802903821BA
:1086D0000EA8FFF7ACFD10A807821CA815900EA9E4
:1086E000684600F037FE0028C3D114210548FFF783
:1086F0009EFD2C706C602C72A02028821E20688247
:10870000CDE70000D02C00200028002071020000DE
:10871000D0B1010010B505484168002903D0407868
:1087200000F0DAF810BD082010BD00005828002025
:1087300010B50246082904D000221146104600F068
:1087400077F8517910791268904710BD1CB50090E8
:10875000684601714271024A082100F061F91CBDAE
:1087600031870100F8B50C46052A01D20720F8BD73
:108770001449154D48600C70CB608A6000210123BC
:108780000BE0E200121816789778B600BF00761951
:10879000376016781A46B24011432246641EE4B28E
:1087A000002AEED10748094B0A46401C00F0DEF8CB
:1087B0000028DCD10348064A0021103000F0D6F929
:1087C000F8BD000058280020000700504D9E010011
:1087D0003D9B010038B5154A0C461178884201D9F5
:1087E000072038BDC10050680D1800280CD069461C
:1087F000507800F057F80028F3D16A780121002A58
:1088000004D0012A08D00FE0082038BD2B78009A48
:10881000DA40D20707D104E02B78009ADA40D20779
:1088200001D0217000E02070002038BD58280020C1
:10883000012002490004C860FFF7A0FD00050050B8
:1088400010B5002903D08A070024002A01D0072090
:1088500010BD0F4A0B4651601070142154704143F3
:1088600018469460FFF7E3FC00200A49C043886083
:10887000094840210160094A1068FF231B049843FE
:108880000B041843106006480160002010BD000072
:10889000742800200063004080E200E004E400E06F
:1088A00000E100E00A4B5A68002A04D05B78984245
:1088B00003D30720704708207047142358438018BB
:1088C000044A12690068024000200A6070470000F4
:1088D0007428002000050050F0B51F4A5168002997
:1088E00004D05378984203D30720F0BD0820F0BD90
:1088F0001A4B0025DD631A4B1C699768002F02D1C3
:10890000184EDB057360012686403E4396601422B4
:1089100050434218D560002201230D5893401D4258
:1089200015D01C4202D003252D0405E001256D045D
:108930004618F7681F43F7600B4B9600F3181E6844
:1089400003273F04BE431E601E682E431E60521C58
:10895000202AE1D30020F0BD7428002040610040AF
:10896000000500500063004000070050F8B5114FAB
:1089700084467D68002D07D0002B07D078783C789E
:10898000A04205D30420F8BD0820F8BD0720F8BD9B
:108990000E461424164344432E5164192361A260E9
:1089A000616061460870411C797001F08BFE002007
:1089B000F8BD00007428002038B50C46A268064BAC
:1089C00012019D58097862880092024620460830BC
:1089D0002369A84738BD0000F02D002070B50F4B6B
:1089E00005245D781E78B54215D01D781C789E88C8
:1089F000B44201DA641C00E000241C705C88DE686C
:108A00006C43A41904609B68E800C418A4880C8017
:108A1000185800241060204670BD000080280020F7
:108A2000F7B53B4C82B060880F4681426ED800207B
:108A3000694608703849374E4868C005C00D18D0DF
:108A4000103840B2002807DA0207120F083A9208DD
:108A500092005118C96904E08108304A89008918D8
:108A600009688007C00EC1400806850F012D01D19D
:108A70000AE0042568462EDF02280BD0002803D028
:108A800000221146FFF7D4FE6178A088814203D20C
:108A9000491C02E072B6F7E700212278C9B2914280
:108AA00007D066786178814201DA491C00E0002134
:108AB0006170012D0BD062B6684600782FDF022866
:108AC00005D0002803D000221146FFF7B1FE11485F
:108AD000864219D0A068F5000499415102990029F5
:108AE0000CD0002F0AD060883A464643E068301820
:108AF000FFF784FBA0682818878002E0002128186F
:108B00008180002005B0F0BD0420FBE70920F9E7D3
:108B100080280020FFFF000000ED00E000E400E0FE
:108B20000EB504E068468188029A0098904702AA30
:108B300001A96846FFF752FF0028F3D00EBD0000E0
:108B400030B5CB0008339DB293070024002B01D031
:108B5000072030BD044B9A605219DA605C701C70BB
:108B600058809980002030BD8028002070B5114CBD
:108B7000A568002D06D0002A06D0002804D00023C6
:108B8000247809E0082070BD072070BD24265E43CC
:108B9000AE5D002E04D05B1CA342F7DB042070BD49
:108BA000242401265C432E5564196170A261036080
:108BB000002070BD90280020FFB59807002481B0E8
:108BC0001E4615460F4600280BD1002E09D001F095
:108BD00085FF22490A9888610F70324600208E6016
:108BE00008E0072005B0F0BD24234343D4549B186C
:108BF0001C75401CB842F7DB24204743BB190320F7
:108C000048700F461846CB601946183000221823CA
:108C10002E465E43D3005B181C705C709D705860DC
:108C20003018521C032AF5DB0020C0433861BC70A9
:108C3000FC7001240A482405046003211420FFF776
:108C40007BFB08480460084C0198A06003211120B8
:108C5000FFF772FB606878610020C3E7902800206E
:108C600080E200E000E100E000150140FEB50446AE
:108C70001D48174682680D46002A0CD001788C42A8
:108C800001D2052D01D20720FEBD214624235943E0
:108C9000535C012B01D00820FEBD881840780128C4
:108CA0001DD0002602F0F4F9C0000F490190C968F8
:108CB0004018694602F016FA002812D0012101700E
:108CC0000A49446049680830E2C007490198C96808
:108CD00041180098487002F0F1F80020FEBD2E46C1
:108CE000E0E70420FEBD00009028002000150140B0
:108CF000F8B5144D0446A868002809D029788C429C
:108D000001D30720F8BD24216143405C012801D034
:108D10000820F8BD02F0BCF9C600E86869463018C2
:108D200002F0E0F900280AD0022101704460E868EE
:108D300031180098487002F0C1F80020F8BD0420F6
:108D4000F8BD000090280020F0B58FB00F46054612
:108D50001C216846FFF76BFA68460178022631430A
:108D60000820014368460170002401940394049490
:108D7000059432200694415D08A881701C4968461C
:108D80000184601C0107090F6846103107940177C0
:108D900001200146684610314177807FF921084063
:108DA000F721801C0840EF2108404108490068462F
:108DB000817714210AA8FFF73AFA08A80A9007A8B1
:108DC0000B90684606864486868678682B46408BDC
:108DD0000AAA010A08A8417178682233817E08A88E
:108DE000017109A80E9028886946A2DF0FB0F0BD76
:108DF0002815000070B58EB00E4605461C21684649
:108E0000FFF715FA6A4610780A210843107000240B
:108E1000019403940494059432200694405D08AABA
:108E2000907017486A461084601C0007000F1030CD
:108E30000794107711205077907FF9210840F7218F
:108E4000801C0840EF210840400840009077142122
:108E500009A8FFF7ECF908A8099007A80A900120D3
:108E60006A469085D485108670682B4617300D9021
:108E700028880A3309AA6946A2DF0EB070BD000037
:108E800025150000F0B58FB00F4605461C21684639
:108E9000FFF7CDF9684601780226314308200143E7
:108EA00068460170002401940394049405943220D0
:108EB0000694415D08A881701C4968460184601CC5
:108EC0000107090F68461031079401770120014618
:108ED000684610314177807FF9210840F721801CD6
:108EE0000840EF2108404108490068468177142175
:108EF0000AA8FFF79CF908A80A9007A80B906846F3
:108F000006864486868678682B46008B0AAA010A64
:108F100008A8417178681A33017E08A8017109A870
:108F20000E9028886946A2DF0FB0F0BD271500001B
:108F300070B58EB00E4605461C216846FFF777F9DE
:108F40006A4610780A2108431070002401940394A3
:108F50000494059432200694405D08AA9070174846
:108F60006A461084601C0007000F103007941077C9
:108F700011205077907FF9210840F721801C08408C
:108F8000EF210840400840009077142109A8FFF71E
:108F90004EF908A8099007A80A9010206A46908503
:108FA000D485108670682B46C01C0D90288812331B
:108FB00009AA6946A2DF0EB070BD000024150000AA
:108FC00070B58EB00E4605461C216846FFF72FF996
:108FD0006A4610780A210843107000240194039413
:108FE0000494059432200694405D08AA90701748B6
:108FF0006A461084601C0007000F10300794107739
:1090000011205077907FF9210840F721801C0840FB
:10901000EF210840400840009077142109A8FFF78D
:1090200006F908A8099007A80A9001206A469085C9
:10903000D485108670682B461C300D9028882A3302
:1090400009AA6946A2DF0EB070BD00002915000014
:1090500070B58EB00E4605461C216846FFF7E7F84E
:109060006A4610780A210843107000240194039482
:109070000494059432200694405D08AA9070164826
:109080006A461084601C0007000F103007941077A8
:1090900011205077907FF9210840F721801C08406B
:1090A000EF210840400840009077142109A8FFF7FD
:1090B000BEF808A8099007A80A9004206A4690857F
:1090C000D4851086706809AA13300D902888AB1CCF
:1090D0006946A2DF0EB070BD2615000000B587B04E
:1090E00018221BA16846FFF789F81F48422101702A
:1090F0005F21C900418359210183012101771B4967
:109100004B6A6A4653754A6A130A6A4613754A6A75
:10911000130C6A46D374496A401C090E91741722D5
:109120006946FFF76BF82021114801F0FDFA00288D
:1091300007D1002320220C490D4801F005FC00282E
:1091400003D000221146FFF773FB07B000BD0000FB
:1091500002150112233445566778899AABBCCDDEDF
:10916000EFF000010000BB00742900208000001017
:109170001428002008B5684601F0C2FA002803D080
:1091800000221146FFF754FB00990548002902D040
:109190000121017008BD00210170FFF7EFF8000008
:1091A0000028002070B5284E88B005000BD0FFF7CE
:1091B00037FA26488068007F002802D0304600F049
:1091C00087FF08B070BD1120694608720C2220A1EB
:1091D00002A87CDF00282BD10024FF2091300094CE
:1091E00069460194088042004A808C80C8806846A5
:1091F0007ADF00281CD101F007FD2846FFF710FA9E
:109200001C216846FFF713F80520400401908010E8
:1092100002900094032168460173C48104741048CD
:10922000059010480690684600F022F9002803D007
:1092300000221146FFF7FCFA01F072FC7D200001CC
:1092400000F0E2FEBAE70000000001000028002064
:10925000426561636F6E436F6E6669670000000070
:1092600025A50100D19A010008B5684601F048FA29
:1092700000280FD100990948002902D0012141702E
:1092800008BD002141708078FFF78CFF044873DF30
:109290000028F5D000221146FFF7CAFA0028002066
:1092A000D02C002070B529480D4614468168202234
:1092B0002748FEF7A3FF2648422101702B00FFF745
:1092C000DFF806040D10161C2D2F2178C17461786B
:1092D0000175A1784175E178817521E02178C1752A
:1092E0001EE010222146C01CFEF788FF18E06178BE
:1092F000227809028918018312E061782278090234
:10930000891889B24183642902D26421418307E02C
:109310000522D202914203D9428301E021780177EC
:109320000A482021143001F0FFF9002808D107482D
:10933000002320220649143001F006FB002803D048
:1093400000221146FFF774FA70BD000000280020CB
:10935000D028002070B50D4692B000216A461170E9
:1093600007241171002812D08188002905D0816856
:10937000002902D00978490702D4204612B070BDF6
:1093800002A9FFF799F80028F8D102AE00E0002604
:10939000002D0BD0A8880028EFD101AA0AA92846E1
:1093A000FFF78AF80028E9D10AAA00E000226846FF
:1093B00003790178304672DFE0E7000030B50446FB
:1093C000002085B0C043A08608681E4B0D46A063F0
:1093D0000FCB03936B4607C321463231684663DFE8
:1093E00000282DD13220015D684681741649018222
:1093F000224604A90120A0DF002821D129462046C9
:10940000FFF726FE00281BD129462046FFF7F2FC75
:10941000002815D129462046FFF78AFD00280FD1E4
:1094200029462046FFF72EFD002809D1294620466F
:10943000FFF78AFC002803D129462046FFF7C0FD2C
:1094400005B030BDD4B101002315000010B50A8865
:10945000102A06D0112A06D0502A01D101F0E1F8D5
:1094600010BD898801E00021C943818610BD00003C
:1094700070B5054601461C220F48FEF7BFFE0F4C93
:10948000002626702968002907D00822A018FEF7B8
:10949000B5FE204608307ADF02E0084808307BDF5E
:1094A000002808D1401E608004486670044A0021EC
:1094B000001DFFF75BFB70BD082D00203028002049
:1094C0002DB00100F8B5224C028800271F4DE68917
:1094D000102A16D029464968112A21D0122A2DD0E7
:1094E000502A1CD1C288801DB24218D1028B022A98
:1094F00015D1C27E837E10021843C007C00F0CD165
:1095000012E0818869800146104808220E3110302F
:10951000FEF774FE6F70002E01D100F0DDFAF8BD89
:109520000020C04368806F700846FFF7E1FB002809
:10953000F5D0A1690029F2D08847F8BD811D034804
:1095400008221030FEF75AFEE7E70000302800201E
:10955000082D002010B502484068FFF7C9FB10BD78
:109560003028002030B585B00D46040039D0002DDC
:1095700037D06868002834D00020C0431A4B2080C0
:109580000FCB049301AB07C318486946088001A8B4
:10959000811E63DF002822D1221D69460120A0DF41
:1095A00000281CD168468078A071204600F058FB46
:1095B000002814D1204600F00FFB00280FD12946C7
:1095C000204600F0AFFB002809D16868A062A868B7
:1095D000002800D0E062064901200870002005B094
:1095E00030BD0E20FBE70000E4B1010030150000A3
:1095F000C82800203EB5002820D000291ED0826A4D
:10960000002A1BD00A88102A19D0112A28D0502AE3
:1096100017D0512A12D104468879891D02280DD10C
:109620004888228A904209D12046891C00F08CFF8C
:10963000002803D0E16A002900D088473EBD898810
:1096400010E0CA8803899A42F8D108226B461A7042
:109650008A7F1A7120310291826A694690473EBD25
:109660000021C94301803EBD30B585B0002822D01D
:109670000388134CA34220D0124B1B78002B1CD024
:10968000104B10255B1C1D705970002401259A7029
:10969000032269460A820094019402940394028A88
:1096A0000A808D708C8004A902910393008869461A
:1096B000A6DF05B030BD0E20FBE70820F9E700006B
:1096C000FFFF0000C828002010B50446FFF7FAFE8F
:1096D00021460648FFF7BAFE044821463C30FFF712
:1096E00089FF204600F0D4FE10BD0000642C00204D
:1096F00008B50F4B50220F49062001F0D9FA002877
:1097000011D10090012069460870684660DF00288A
:1097100009D1094801F0ACFA002804D1074801F04A
:10972000DFFA002803D000221146FFF781F808BDB8
:109730009DAC010024290020C99601008DAE0100D6
:1097400070B51A4800688047B1203CDF002803D07C
:1097500000221146FFF76CF811DF002803D0002229
:109760001146FFF765F8124C606913DF002803D03B
:1097700000221146FFF75CF801210E4A88051060AF
:109780000D4A002012680C4B80330D46854015426F
:1097900004D0C606F60E0D46B5401D60401C2028BC
:1097A000F3D3606900F00AF870BD0000482800207B
:1097B0000010001080E200E000E100E010B5FEF7CC
:1097C00089FC10BD10B501290AD1122806D008283D
:1097D00004D0002211461046FFF72AF8FFF7CAFC12
:1097E00010BD000010B50E4AD368002B0AD0CAB2D3
:1097F000017840689847002803D000221146FFF7FF
:1098000017F810BD012906D00029FAD10378426863
:109810001846904710BD037801214268F8E7000020
:1098200058280020F8B5384914230A780F205A43E5
:1098300054183649227926698F88241D022A1BD0A4
:1098400001252D07042A2AD0052A5BD1286981B277
:109850003046FEF78DFC0146A38828699A1980B22C
:109860004843101A820860881818861928694B1C0A
:1098700080B25843801B34E0B80262882169121A12
:109880000918A3883018181801239B029A4202D2A3
:10989000920821DF31E0FF22013221DF2DE0A368B1
:1098A00019481901CC300818018942894068B04232
:1098B00003D160885143814218D0022B16D0286909
:1098C00081B23046FEF754FC0146286980B2484315
:1098D000301A820828694B1C80B2584363889B1950
:1098E000C01A8308204601F017FA06E0286981B201
:1098F0003046FEF73DFCC01920DF002802D10249A6
:1099000001228A70F8BD0000242D00204C28002080
:1099100010B5084900204A78002A09D08978002922
:1099200006D1FFF77FFF002802D0112800D10020C8
:1099300010BD0000242D002014225043054A0021B0
:1099400080180171C18001220161C2604161018101
:1099500070470000242D0020F8B5124C069E657853
:109960000A2D1DD027787D19EDB20A2D01D30A3DAD
:10997000EDB214277D432D1928716A6103C929614D
:10998000E860EB802E81A1780020002904D1FFF748
:1099900049FF112800D100206178491C6170F8BD91
:1099A0000420F8BD242D0020F8B5224801694A1C86
:1099B0003DD024225143826889184E681E494C6864
:1099C00047690079E11B0D022D0AED1C002814D116
:1099D00001201A4A00045060184A403A5060184961
:1099E00040000860174908601749012008602F20CF
:1099F000FEF792FB0F4901200871B54200D23546AF
:109A0000E81900020C49000A403108600A49496817
:109A1000001B091B0902090A0002000AC91C814235
:109A200004D901200649400480390860F8BD01F0DE
:109A300055F8F8BD90280020001501404013014062
:109A400080E200E000E100E000100140F8B50D46C2
:109A500011780646881D14461F2801D90C20F8BD30
:109A600033880720062BFAD31927FF01BB4202D9FE
:109A7000164A9342F3D17288062AF0D3BA4202D929
:109A8000124FBA42EBD1114FBB4203D0BA4201D0C0
:109A90009342E4D8481C052220706A542078122290
:109AA000411C21702A5420784119308801F0B8FAFD
:109AB00021784018C0B220704119708801F0B0FAC6
:109AC0002178401820700020F8BD0000FFFF000042
:109AD00000221146FEF7ACFEF8B5164800F00CFA6D
:109AE000144D0026103D144C002807D06169002950
:109AF0001BD001206A461070684615E028780028BF
:109B000005D06169002910D0684606700CE06878BD
:109B100000280CD0A16800226868FFF7A7F8002889
:109B200003D0A169002900D088472E70F8BD616874
:109B3000F1E7000040280020082D0020F8B5184D5E
:109B400069466878FEF7AEFE00281DD12F46002436
:109B50001437012615E06968E000401803783146A3
:109B60003A6899400A4210D04268002A0DD04178E4
:109B7000012901D1002100E00121FFF733FE641C1F
:109B8000E4B228788442E6D3F8BD7A680A42F6D077
:109B900041680029F3D041780129EDD0EAE70000BF
:109BA0005828002010B50978002902D8FFF7C8FD11
:109BB00010BD03220121FFF757FD0028F8D0002235
:109BC0001146FEF735FE10BD7047000001490860E0
:109BD000704700004828002030B58FB005461C2192
:109BE0006846FEF724FB69460878082108431022DE
:109BF000104369460870002401940394049405946A
:109C00000694A87908A98870144869460884601CDD
:109C100000070794000F0C7710304877887FF921F0
:109C20000840F721801C0840104301210843694681
:109C30008877142109A8FEF7FAFA08A8099007A85E
:109C40000A9069468C851720CC8508860D942B4692
:109C5000A888103309AAA2DF0FB030BD311500006B
:109C600030B58FB005461C216846FEF7E0FA69461C
:109C7000087804210843694608700024019403947D
:109C8000049405940694A87908A988701448694634
:109C90000884601C00070794000F0C771030487789
:109CA0008A7FF9200240F720921C0240EF200240F8
:109CB000012002438A77142109A8FEF7B8FA08A800
:109CC000099007A80A9069468C851420CC850886DF
:109CD0000D942B46A888083309AAA2DF0FB030BD27
:109CE0003215000010B50D480D4980884C1C884283
:109CF00002D0132176DF00E074DF002808D120466F
:109D000000F004FA002803D1FFF724FC002803D058
:109D100000221146FEF78CFD10BD00000028002037
:109D2000FFFF0000F0B58FB00F4605461C216846C6
:109D3000FEF77DFA6846017802263143017000245F
:109D400001940394049405940694A97908A8817059
:109D5000174968460184601C0107090F68461031E5
:109D6000079401770020014668464177817FF920FA
:109D70000140F720891C0140EF20014001200143F0
:109D800068468177142109A8FEF751FA08A80990BE
:109D900007A80A9068468685C48506860D972B46D7
:109DA000A888203309AA6946A2DF0FB0F0BD0000E1
:109DB0003415000010B50E4900238A78CC78A242F1
:109DC00012D0521CD2B28A70022A00D18B708A78CB
:109DD000074B92001C339A58026048691018000221
:109DE000000A4861012010BD0360002010BD000082
:109DF00090280020F7B5144C0025A76823691EE0C1
:109E000024215943C9194E68864202D9301A486044
:109E100017E0801B751900264E600E750E699C4672
:109E20000B6AB646002E0AD0019E76193602360A13
:109E30008E607646CE6016680E6261461160591CCF
:109E4000DED12361FEBD00009028002070B5094DD1
:109E500004460E462869FEF74BFF002809D1284624
:109E600014300660446034432246A9682869FEF72E
:109E7000FDFE70BD58280020F8B51E4C2078002843
:109E800037D02069002807D00026E068002805D0D8
:109E90000025002E04D013E00126F6E70125F8E79F
:109EA000684651DF052806D0002806D0002211465A
:109EB000FEF7BEFC04E0012602E021690098884715
:109EC000002D12D1608869460880A06861DF0528EE
:109ED00006D0002806D000221146FEF7A9FC04E0B7
:109EE000012502E0E168A0688847002ED8D0002D47
:109EF000CFD0F8BDB428002041880548028891429F
:109F000004D34088814201D8012070470020704767
:109F1000382800201048018CC9B2012917D1818C42
:109F2000090714D1018D09060A0F03D1828D12068B
:109F3000120F0ED0090F012903D1828D1206120FC4
:109F400007D0032903D1808D0006000F01D0002027
:109F50007047012070470000C00F00F0800701D05B
:109F60000020704701207047F8B5234D0646287B36
:109F70000024002801D00820F8BD002E1DD0307824
:109F800000281CD07178884219D9B078002816D0E2
:109F9000F068002813D024211748FEF748F9164826
:109FA000142231461030FEF729F90121124AA97214
:109FB000032320321278E86915E00E20F8BD07204F
:109FC000F8BDC6070DD00D4EA700BE193360002A9C
:109FD0000E4603D00A4FA640FE6002E0084FA6409E
:109FE000BE604008641C0028EBD12973054A00219B
:109FF000281DFEF7BBFDF8BDE42C00200007005033
:10A000000005005021A0010004490A7B002A02D06B
:10A01000486100207047082070470000E42C0020B1
:10A02000F8B5294C207B00284DD0204620210F5C1C
:10A03000667A0B21254A012541560368002E2FD050
:10A04000002F01D0D36000E09360002363721E48AC
:10A05000A67A827C407C002E07D0891849B2E17232
:10A06000227C914207DBA37205E0891A49B2E172B2
:10A07000814200DCA5720B21615681420DDC6069D2
:10A08000FF23410CC003F5330022C01851415A0090
:10A090000023FEF783F801460BE06420411A05E037
:10A0A000002F01D0936000E0D36065720620414329
:10A0B000491D00226068FEF7D9FD002803D0002268
:10A0C0001146FEF7B5FBF8BDE42C0020000500505A
:10A0D00010B50C4C217B002906D02168014321607A
:10A0E000207A002802D00AE0082010BD002206498C
:10A0F0006068FEF7BBFD0028F7D101202072002028
:10A1000010BD0000E42C00208F02000010B50B4CA5
:10A11000217B002908D0216881432160207A002812
:10A120000AD0002902D007E0082010BD6068FEF7C1
:10A13000DFFD0028F9D12072002010BDE42C0020A2
:10A14000F8B5234801690091457833E02048E900DB
:10A15000C0680E1834782AE0182060437168641CC7
:10A160000818B178E4B2A14200D100240178022994
:10A1700002D003291BD113E0154A406824219268BC
:10A1800041438F18397D002911D000F0D1FE002005
:10A1900038750CE024277843C0180275006A03E084
:10A1A0000B4900228B680869471CF3D1086170785D
:10A1B000A042D1D128466D1EEDB20028C6D1044878
:10A1C00001690098814201D00120F8BD0020F8BD4E
:10A1D00090280020F8B5044638480027016900910E
:10A1E00046785CE03548F100C2688D1851E0601C8B
:10A1F00007D0324A24209268604321468018046ABE
:10A2000024E02878182141436A68401CC0B25218E3
:10A210002870A978884200D12F70284B51682420DB
:10A220009B684843C0181378012B34D1037D002B61
:10A2300031D193688360D368C36013690361526945
:10A24000C2611E4A5279002A00D087601B4B826887
:10A250005B6996469C46D31A1A02194B120A9A4217
:10A2600002D2C368D21808E0724663469A1A1202F4
:10A27000C368120A934202D99A1A426000E047600A
:10A2800087600122C7600275921E0262084600F0D4
:10A290001DFE601CABD1287869788842A7D1304672
:10A2A000761EF6B200289DD10448016900988142CB
:10A2B00001D00120F8BD0020F8BD0000902800204A
:10A2C000FFFF7F0086B0364A0A210820FEF738FCDF
:10A2D000002861D10025324B0422B03303212846E7
:10A2E0000095FEF769FC002856D12E490220FEF7A2
:10A2F000A7FA002850D12C4B2C4A02212C48FEF7FB
:10A3000031FA002848D1FEF705FA002844D129493E
:10A3100003200860012428492004886069460D74E0
:10A3200014220A704D708C7003907D2040010190C2
:10A3300002956846FFF718FE00282DD1FFF7D8F9DF
:10A3400000F030FA002827D16946FEF743FA0028CA
:10A3500022D168460078164D60401C3DA870174811
:10A3600000902021684681802946C480143100F085
:10A370006DFA002810D1284614304068A860007893
:10A38000422801D0FEF7AAFEA878FEF76DFFFEF77F
:10A39000C7FB40DF0028FAD000221146FEF748FA3A
:10A3A000942900203C2C00204D8701006606000007
:10A3B0001C28002040070050000500503DA8010067
:10A3C00070B5054600790E46801C1446C0B211785F
:10A3D000821C8A181F2A01D90C2070BD0A46491C0C
:10A3E0002170401CB0542078FF22411C217032544F
:10A3F00020788119288800F013FE21784018C0B217
:10A400002070AA88002A09D0A968002908D08019DC
:10A41000FDF7F4FE2078297940182070002070BDE7
:10A42000072070BDF8B514780746A01C15460E46E7
:10A430001F2803D87878801C1F2801D90C20F8BD6C
:10A440001D20001B80B26946864608803019801C9A
:10A450007DDF0028F3D13878022805D168460088CE
:10A46000704501D8092107E078780821002801D03B
:10A47000704501D968460088421C3255641CE2B21E
:10A48000B1542978801C081828700020F8BD0000FD
:10A4900010B5224902888B88142A24D00BDC102A9C
:10A4A00014D0112A15D0132A12D10A460C320021D9
:10A4B00018467FDF25E0172A0FD0192A27D0522A05
:10A4C00006D1002211461846A9DF1AE0808888804C
:10A4D00010BD0020C04388801CE0811D322210483E
:10A4E000FDF78CFE10BD0E49C089CA88891D8242C5
:10A4F00003D10022184681DF03E0002211461846EE
:10A5000081DF0028EED000221146FEF791F9807914
:10A510000028E7D1FEF72EFE10BD00000028002025
:10A52000F028002010B50078002809D105483B210B
:10A53000808876DF002803D000221146FEF778F9E4
:10A5400010BD000000280020F0B589B004460227A5
:10A55000684607700D468783A08A08AB07AA0021CA
:10A56000A5DF0026002804D0E16A00291AD0884718
:10A5700018E06846008CC007C00F13D0684686807C
:10A5800020886946A8DF002812D1A97E28461B3002
:10A5900001220B00FDF774FF09430E1C2225272A18
:10A5A000412C4300FF20FE30694688802088A8DFC8
:10A5B00009B0F0BD6B461E740CE006221DE0694632
:10A5C0000A750690A26A04A9204690470020EFE78A
:10A5D0006B461A742B8B022BF1D2EEE76846077498
:10A5E000F0E7032000E00420694612E00520FBE7C5
:10A5F000298B032905D2032208212046FFF734F8CE
:10A60000D6E741780278080210436946888202D072
:10A6100006200874D6E70720FBE70920E4E70322B9
:10A62000EBE770B5836B8C1D0546002B48D0208866
:10A630006A8826461A36904206D1208B042803D118
:10A64000324600212846984720886989884207D1E8
:10A65000208B012804D1AB6B324601212846984754
:10A660002088698A884207D1208B102804D1AB6BDF
:10A6700032460221284698472088698B884207D1B4
:10A68000208B022804D1AB6B324603212846984721
:10A690002088698C884207D1208B022804D1AB6BBB
:10A6A00032460421284698472088698D884207D180
:10A6B000208B012804D1AB6B3246052128469847F0
:10A6C00070BD0000F0B50C4A0021536814225043BD
:10A6D00001240A4D03273F041E5822468A40164291
:10A6E00006D08A0052191668BE43166016681660B6
:10A6F000491C2029F0D3F0BD742800200007005029
:10A7000007490978002906D0002806D0054949786C
:10A71000016000207047082070470E20704700003D
:10A720004C280020242D0020F8B505461B480F4674
:10A730000078002805D0002D05D02868002820D1F9
:10A7400003E00820F8BD0E20F8BD154C0026206857
:10A75000002816D0608921894843616841186868DB
:10A7600081420ED9FFF7FAFB00280CD029686868EF
:10A77000090109194A680989801AFDF7F9FC0029BD
:10A7800003D00720F8BD1020F8BD3B460022294623
:10A7900004200096FFF7E0F8F8BD00004C280020E8
:10A7A000F02D0020F8B50026214C2248A6806670C6
:10A7B00006704670867035462846FFF7BDF86D1C5A
:10A7C0000A2DF9D31C4F668078693D04401C05D0E2
:10A7D000286981B27869FDF7CBFC00E068692969D6
:10A7E000801E89B24843A0601248A680CC30066023
:10A7F000068186814681082060707869401C05D0FA
:10A80000286981B27869FDF7B3FC00E068692969BD
:10A81000401E89B24843296989B2FDF7A9FC20DFAF
:10A82000002803D1034A012191702170F8BD000076
:10A830004C280020242D00200010001010B510001E
:10A8400003D000221146FDF7F3FF10BDF8B5044612
:10A850003A480F46007800281DD0002C1DD0002F4C
:10A860001BD02068002818D001252D07A68828694C
:10A8700080B2864230D8102E2ED3E0880090002877
:10A880002AD02F484169491C09D02969406989B2F9
:10A89000FDF76EFC04E00820F8BD0E20F8BD6869E5
:10A8A0002969401E89B24843244B00999D68714331
:10A8B0004B19984210D301200007006980B28142F1
:10A8C00008DD012000070069314680B2FDF750FC29
:10A8D000002901D1B00701D00720F8BD17484288F0
:10A8E000012A1AD0174824C711010E187560236871
:10A8F0004350A0883081E0887081A088E1880023DF
:10A900004843012109075B1C0C699BB2A4B2844235
:10A9100005D20C69A4B2001B02E00420F8BD00209F
:10A920000C69A4B265190C69A4B28442EBD903483E
:10A93000521C8560B38142800020F8BD4C28002065
:10A9400000100010F02D0020F8B5044620481E46E7
:10A95000007815460F46002807D0002F07D0002C9E
:10A9600005D02068002817D103E00820F8BD0E208C
:10A97000F8BD1848016800290ED042890189406855
:10A980004A4310186268904206D9002D04D0A942AB
:10A9900002D3A819884201D90720F8BD3846FFF72D
:10A9A000DDFA002811D03046FFF7D8FA00280CD085
:10A9B0006068FFF7D3FA002807D02B463A462146B5
:10A9C00002200096FEF7C8FFF8BD1020F8BD000079
:10A9D0004C280020F02D0020F8B5064600203D4D03
:10A9E0008646A878012812D100203B4AA8705378E7
:10A9F000082B0DD02F463C7814216143C919022E33
:10AA000014D0032E03D10D20091DFDF7D5FFF8BD8D
:10AA1000022E09D01070FEF77BFF0028F7D02978AE
:10AA2000142251434919EFE75070F4E72A4A9588F8
:10AA30006D1CAEB296800D79091D022D05D14F888F
:10AA4000B202BA4201D3012200E000229446052D51
:10AA500001D1072B03D00022042D02D003E00122F4
:10AA6000FAE7072B03D00027042D02D007E00127C7
:10AA7000FAE74988B5028D4201D3002B27D0002187
:10AA80003A430A4361460A4317D0134A11495070AA
:10AA900090804878401E4870601CC0B208700A2838
:10AAA00001D30A3808701420604341187046091D0C
:10AAB000FDF782FF2046FEF73FFFFEF729FF002843
:10AAC000A5D0044914230A785A4351189CE7012160
:10AAD000D6E70000242D00204C28002070B501246A
:10AAE0000B49600408600B494010886009494039EF
:10AAF0008860094D6C602F20FDF70EFBAC60074DA0
:10AB000000242F206C61FDF707FB2C7170BD000045
:10AB100080E100E040130140001001409028002037
:10AB200008491E2008808878E12240084000104033
:10AB3000DF220C30104088700720C8701020087188
:10AB4000704700000C280020F0B5002201230326E6
:10AB500036041F469740394212D0C5683D4203D1A2
:10AB6000012464043D4301E03446BD43C560064D05
:10AB700097007D192F68B7432F602F6827432F60F8
:10AB8000521C202AE5D3F0BD00070050F7B582B073
:10AB900002981446006B0F46002833D00298002517
:10ABA0002030009028E00298016B0C2068430E18BA
:10ABB000217830794A1C2270C01C785420781622E3
:10ABC000411C21703A542078C119308800F028FACD
:10ABD00021784018C0B22070B288002A09D0B1682C
:10ABE00000290FD0C019FDF709FB207831794018F2
:10ABF00020706D1C0098EDB2007DA842D3D80020D3
:10AC000005B0F0BD0720FBE700B585B0002000903F
:10AC100002900F4801900120694608800D48FEF718
:10AC2000A1FC00280ED10C48FEF7D0FF0B48039082
:10AC30000B4803A98068049006483C38FEF7BEFB29
:10AC4000002803D000221146FDF7F2FD05B000BD3B
:10AC5000A59B0100A02C0020E59C0100A59201000D
:10AC60000028002010B508461146C046C04610BD59
:10AC7000002803D00249C860002070470E207047AA
:10AC8000B428002010B5002904D000221146104637
:10AC9000FDF7CEFDFFF7F0F810BD000010B5002164
:10ACA000024A0846FDF7BCFE10BD000085AC01005D
:10ACB00070B5002901D08C0701D0072070BD064C6B
:10ACC0000125A16062800549636010DF0028F5D18D
:10ACD0002570162026DF70BDB428002065AC010069
:10ACE000002803D002490861002070470E207047F9
:10ACF000B428002010B507480178002902D0FEF7DB
:10AD000039FA10BD41780029FBD08078FEF7ACFA03
:10AD100010BD000000280020FFB583B00F46594D3C
:10AD2000069A059906466B78114303200191002B82
:10AD300003D100290FD001216970059A6978012497
:10AD40009200240700920B00FDF79AFB07320721BF
:10AD50003454748332000221EEE74B484169491CA8
:10AD600005D02169406989B2FDF702FA00E0606907
:10AD70002169401E89B24843216909048A0C21696E
:10AD800089B2794321DF002812D102210FE0384631
:10AD900020DF00280CD10599002901D0032106E00D
:10ADA000069900291FD13178042968D020E0697004
:10ADB00007B0F0BD34484169491C05D0216940699C
:10ADC00089B2FDF7D5F900E060692169401E89B2BA
:10ADD00041432069059A80B2784321DF0028E7D1FA
:10ADE0000699002901D00421E1E7317804292ED009
:10ADF0000521DCE724484169491C05D021694069E7
:10AE000089B2FDF7B5F900E060692169401E89B299
:10AE100048437188421800981018226992B27A4308
:10AE200052180099531801461846069A21DF002847
:10AE3000DBD0BDE72069718880B2784380188A082A
:10AE4000316921DF0028B3D10199002917D00621EB
:10AE5000ADE70D484169491C05D02169406989B2B7
:10AE6000FDF786F900E060692169401E89B2484318
:10AE7000216989B2FDF77CF920DF002898D10721EC
:10AE800095E700004C2800200010001008B5FFF7DF
:10AE9000A3FD6846FFF734FC009908430AD100215E
:10AEA000054A0846FDF7BCFD002803D000221146E4
:10AEB000FDF7BEFC08BD0000F5AC01000120024911
:10AEC000000508607047000000E200E0F0B5174F91
:10AED0002421BC6841430D1939694A1C09D0242238
:10AEE0004A4316196B687268934204D8D21A72608A
:10AEF00029623861F0BD0A4602E00A46396A9B1BA6
:10AF00004E1C0BD024264E4337197E689E42F4D344
:10AF100024264E4336197768FF1A77606B602962E2
:10AF200024214A4311190862F0BD00009028002036
:10AF300070B5194C2269A5681346114606E0814296
:10AF400007D00A46242671434919096A4E1CF6D1D6
:10AF500070BD002EFCD08A420CD1242043435819E6
:10AF6000006A2061401C05D10C4B01209860002331
:10AF700063616071242041434819242341685A4386
:10AF8000006A52191062421CE2D024225043401938
:10AF900042685118416070BD9028002000100140A7
:10AFA000F8B51D4C2569681C35D01C480026406842
:10AFB0006169401A07023F0A19E024204543A0684E
:10AFC0002A185068B84214D8A3693F1A8619156A1E
:10AFD000002B09D0D16990699847002807D000223A
:10AFE0001146FDF725FC02E09169D0698847681C8D
:10AFF000E3D1A178E078814206D1401CC0B2E07074
:10B00000022801D10020E07003490006800D1C31A8
:10B010000E50FFF753FFF8BD9028002000150140A7
:10B020000870000A487002207047000038B51549C2
:10B03000154A488890420FD04A78144C521CD2B21C
:10B040004A70237B934208D3083175DF002803D070
:10B05000A169002900D0884738BD00254D70217CAA
:10B06000002907D03B2176DF002803D0A169002901
:10B0700000D0884761690029EED06846057088478E
:10B0800038BD000030280020FFFF0000082D002000
:10B0900012494868C005C00D19D0103840B20028C8
:10B0A00007DA0207120F083A920892005118C9698C
:10B0B00004E081080A4A8900891809688007C00EDF
:10B0C000C1400806800F012803D0032803D00220C6
:10B0D00070470020704701207047000000ED00E03D
:10B0E00000E400E042788378521C934200D10022B1
:10B0F0000378934201D1002070470A60416840788C
:10B100001822504308187047F8B51546069C1E468D
:10B1100007460222009400F00AF8002806D13346C0
:10B12000102229463846009400F001F8F8BDFFB51A
:10B1300083B0074600200C9C8646267805463AE0F8
:10B140007868A90041180A88684682804988C180C9
:10B150000022694601A865DF002810D16846017801
:10B160000598814226D17046002801D0002200E0D7
:10B1700002222078891841181F2902D90C2007B013
:10B18000F0BD7146002908D1401CC0B2411C069B8D
:10B19000049A21701A5401208646217806980A18CC
:10B1A000694601A865DF0028E9D169462078097859
:10B1B000401820706D1C3888A842C1DC70460028F9
:10B1C00004D020780699801B401E88550020D6E7C1
:10B1D00023150000ADE8F3D4B88494A0AAF5E20FDB
:10B1E00000005A9523D1BCEA5F782315DEEF1212D6
:10B1F0000000000014B2010000280020D000000070
:10B200009A840100E4B20100D0280020300D000033
:10B21000AA84010000000000FFFF00000000000001
:10B22000000000000000000000000000000000001E
:10B2300012000300C597010008000300C597010034
:10B240000024F400000000000000000000000000E6
:10B25000000000000000000000000000C99B010089
:10B2600000000000000000000000000000000000DE
:10B2700000000000000000000000000000000000CE
:10B2800000000000000000000000000000000000BE
:10B2900000000000000000000000000000000000AE
:10B2A000000000000000000000000000000000009E
:10B2B000000000000000000000000000000000008E
:10B2C000000000000000000000000000000000007E
:10B2D000000000000000000000000000000000006E
:04B2E000000000006A
:04000005000180C1B5
:00000001FF
